:020000040800F2
:1000000050050020256700080101000803010008D1
:10001000070100080B0100080F01000800000000A4
:1000200000000000000000000000000013010008B4
:100030001501000800000000170100081901000860
:100040003F6700083F6700083F6700083F670008F8
:100050003F6700083F6700083F6700083F670008E8
:100060003F6700083F6700083F6700083F670008D8
:100070003F6700083F6700083F6700083F670008C8
:100080003F6700083F6700083F6700083F670008B8
:100090003F6700083F6700083F6700083F670008A8
:1000A0003F6700083F6700083F6700083F67000898
:1000B000350100083F6700083F6700083F670008F8
:1000C0003F6700083F6700083F6700083F67000878
:1000D0003F6700083F6700083F6700083F67000868
:1000E0003F6700083F6700083F670008DFF80CD053
:1000F00006F040FF00480047590200085005002064
:10010000704700BFFEE700BFFEE700BFFEE700BF8D
:10011000FEE77047704770474348006820B1424887
:100120000068401E4049086040480068401C3F4944
:100130000860704710B50121880706F0DAF83C49DD
:1001400008700421080706F0D4F83A490870022123
:10015000480706F0CEF8384908700221480706F033
:10016000D9F80421080706F0D5F80121880706F020
:10017000D1F8324800882E49097808442F49088070
:100180002D480078012803D1084600882C490880B2
:1001900027480078002845D026480078002841D01C
:1001A0004FF0804006F089F8264908804FF08040E3
:1001B00006F080F8244908602248008820B10846EB
:1001C000006808B1012000E0002008B31C48008846
:1001D0001D49096801EB004142F210704143174884
:1001E0000088401E174A128802EB0040B1FBF0F075
:1001F0001649088011480088401E1249098801EB01
:10020000004013490968B1FBF0F01249086004E0AE
:1002100000200E4908800F49086000200849088026
:100220000649088010BD0000880000200000002062
:100230000600002007000020080000201000002019
:1002400012000020040000200C00002046000020C6
:10025000F0000020480000209AB001F02CF801F0D6
:1002600071F8642001F01FF85B4AD2E9031052696B
:10027000CDE90102009158480EC812A806F0ACFE64
:1002800012A803F08FF9544AD2E903105269CDE95C
:100290000102009150480EC80AA806F09DFE1822DF
:1002A0004E4904A806F06BFB07A807C88DE80700B5
:1002B0000AA804A90EC903F067F90AA803F072F9A5
:1002C000474803F075FC00F0AAFF03F0E9FC03F0D7
:1002D00059FD03F09DFD03F06CFD03F0D8FD03F024
:1002E00080FD03F003FE03F0DCFF74E001F00FF883
:1002F00010F0010F6FD13B483B493C4B3C4ACDE9E4
:1003000000103C493C4800F041FE3C490870374928
:100310003B4801F0DDFD3949097808443749087048
:100320003748006806F09CFC04464FF08F4106F009
:10033000E5FB34490860002427E0334931F9140013
:1003400006F09CFC0746314A314B06F017FC054687
:1003500006F01AFD2F4941F824002F4931F91410F5
:10036000244A32F91420881806F07AFC06462B48F5
:1003700050F82410304606F08BFB054606F09CFC36
:1003800000B2214921F81400641C032CD5DB0024A1
:100390001FE0234931F91410174A32F91420881844
:1003A00006F06CFC07461F4A1F4B06F0E7FB0546AC
:1003B00006F0EAFC1D4941F82400194830F8140001
:1003C0000D4931F81410084400B2194921F81400FD
:1003D000641C032CDDDB89E71C7000083470000806
:1003E00000380140740000207600002070000020DA
:1003F0002C01002056000020500000204500002065
:10040000680000206C0000205C000020BC3FDEABD8
:100410005696433F140100202800002030000020A1
:100420003C000020E088C309AF6F513F200100204D
:100430006200002010B5C8234FF48062F84940F6EE
:10044000F63002F058FD10BD10B586B00446F5A098
:1004500000680390F4A000680290F4A00068019086
:10046000F3A00068009004F0030003A9085C8DF875
:10047000140003A8C4F3C101405C8DF8150003A863
:10048000C4F38111405C8DF8160004F0030002A94A
:10049000085C8DF8100002A8C4F3C101405C8DF81F
:1004A000110002A8C4F38111405C8DF8120005AA66
:1004B000032140F2264002F0A4FC18B14FF0FF30B7
:1004C00006B010BD04AA032140F22A4002F099FCB4
:1004D00010B14FF0FF30F3E70198059000980490B9
:1004E00014F0040F0BD09DF8140040F001008DF8BB
:1004F00014009DF8100040F001008DF8100014F079
:10050000200F0BD09DF8150040F001008DF815006C
:100510009DF8110040F001008DF8110014F4807F67
:100520000BD09DF8160040F001008DF816009DF8E4
:10053000120040F001008DF8120005AA03214FF4CB
:10054000886002F05EFC10B14FF0FF30B8E704AAFB
:10055000032140F2314002F054FC10B14FF0FF3063
:10056000AEE7B44804810020AAE71FB50446B148AD
:10057000007A00F0030054F820000190AD48007AA2
:1005800010F0040F02D0019840420190A948007A6F
:10059000C0F3C10054F820000290A648007A10F081
:1005A000200F02D0029840420290A248007AC0F385
:1005B000811054F8200003909E48008910F4807F39
:1005C00002D00398404203909B49019880FB0101AF
:1005D000800F40EA810001909749029880FB01104A
:1005E000820042EA917002909349039880FB0110C7
:1005F000820042EA917003900198000E8DF800008D
:100600000198000C8DF801000198000A8DF8020095
:100610000198C0B28DF803006A4604214FF474704B
:1006200002F0EFFB18B14FF0FF3004B010BD02989C
:10063000000E8DF800000298000C8DF80100029861
:10064000000A8DF802000298C0B28DF803006A46D5
:1006500004214FF4757002F0D4FB10B14FF0FF305D
:10066000E3E70398000E8DF800000398000C8DF866
:1006700001000398000A8DF802000398C0B28DF8BB
:1006800003006A4604214FF4767002F0BAFBCCE70F
:1006900070B588B0064601A801F0C2FDBDF804009F
:1006A0000021C90341EA5045C40300BF6148007AF4
:1006B00000F0030056F8200005905E48007A10F024
:1006C000040F02D00598404205905A48007AC0F3C2
:1006D000C10056F8200006905648007A10F0200F0E
:1006E00002D00698404206905248007AC0F381102A
:1006F00056F8200007904F48008910F4807F02D000
:100700000798404207900598C117A0FB042301FBFE
:10071000043100FB0510810041EA927005900698B3
:10072000C117A0FB042301FB043100FB051081006D
:1007300041EA927006900798C117A0FB042301FBC1
:10074000043100FB0510810041EA92700790059882
:10075000000E8DF808000598000C8DF8090005982A
:10076000000A8DF80A000598C0B28DF80B000698B3
:10077000000E8DF80C000698000C8DF80D00069800
:10078000000A8DF80E000698C0B28DF80F00079889
:10079000000E8DF810000798000C8DF811000798D6
:1007A000000A8DF812000798C0B28DF8130002AA53
:1007B0000C214FF4257002F024FB08B070BD30B559
:1007C00085B004461DA207CA02AB07C3C82C03DDCF
:1007D0004FF0FF3005B030BDC82090FBF4F0401E54
:1007E00085B2280A8DF80000E8B28DF801006A464B
:1007F000022140F2162002F004FB10B14FF0FF304E
:10080000E8E702AA0C2140F6C12002F0FAFA10B182
:100810004FF0FF30DEE7074884810020DAE7000070
:100820004C7000084CCD6C000CC92C00365676007C
:10083000264666003C01002009E3CA02FEF2ABC472
:10084000AAF1DFDFBBAFDFDF0146FC48808908800B
:10085000002070472DE9FC4706460F4616F0070FAB
:1008600002D0B7F5C86F03DD4FF0FF30BDE8FC875D
:10087000384606F0FEF98146F14906F03FF9804618
:10088000684601F051FC9DF80000022806D00428BB
:1008900016D0082826D0102848D135E04FF08D41D9
:1008A000404606F0F5F8814606F01FFA84B2E549A5
:1008B000404606F0EDF8814606F017FA85B238E0BA
:1008C0004FF08C41404606F0E3F8814606F00DFA01
:1008D00084B2DD49404606F0DBF8814606F005FAB1
:1008E00085B226E04FF08B41404606F0D1F88146B4
:1008F00006F0FBF984B2D549404606F0C9F88146B6
:1009000006F0F3F985B214E04FF08A41404606F054
:10091000BFF8814606F0E9F984B2CD49404606F0B9
:10092000B7F8814606F0E1F985B202E04FF0FF30FA
:100930009CE700BF20128DF80400E0B28DF805009E
:1009400028128DF80600E8B28DF8070016F0010FA6
:1009500014D001AA02214FF4EA7002F052FA10B149
:100960004FF0FF3082E70DF1060202214FF4927042
:1009700002F047FA10B14FF0FF3077E716F0020FA0
:1009800014D001AA02214FF4EC7002F03AFA10B12F
:100990004FF0FF306AE70DF1060202214FF4947028
:1009A00002F02FFA10B14FF0FF305FE716F0040F9E
:1009B00014D001AA02214FF4EE7002F022FA10B115
:1009C0004FF0FF3052E70DF1060202214FF496700E
:1009D00002F017FA10B14FF0FF3047E7002045E76B
:1009E00038B504460020009014F0010F04D09DF8A3
:1009F000000040F03000009014F0020F04D09DF889
:100A0000000040F00C00009014F0040F04D09DF89A
:100A1000000040F0030000906A4601214FF4A470EA
:100A200002F0EFF938BD38B50446012C01DA012493
:100A300002E0042C00DD0424601EC0B200906A466F
:100A4000012140F24F1002F0DCF938BD38B5044600
:100A5000052094FBF0F085B228128DF80000E8B272
:100A60008DF801006A4602214FF4EF7002F0C9F9D7
:100A700038BD38B50446052094FBF0F085B2281245
:100A80008DF80000E8B28DF801006A4602214FF4AB
:100A9000ED7002F0B6F938BDF8B505460E464FF4D4
:100AA0007A7095FBF0F000FB06F4200E8DF8000044
:100AB000200C8DF80100200A8DF80200E0B28DF8BC
:100AC00003006A4604214FF4AE7002F09AF9F8BDB3
:100AD00038B50446052094FBF0F084B220128DF85E
:100AE0000000E0B28DF801006A4602214FF4AD70BB
:100AF00002F087F938BD38B50446052094FBF0F0C4
:100B000084B220128DF80000E0B28DF801006A4630
:100B100002214FF4AC7002F074F938BD38B50446C8
:100B200014B94FF0FF3038BD6A4604214FF45870B5
:100B300002F0A4F910B14FF0FF30F4E79DF8000087
:100B400000069DF8011040EA01409DF8021040EABD
:100B500001209DF80310084320600020E3E738B52A
:100B60000446200E8DF80000200C8DF80100200AAC
:100B70008DF80200E0B28DF803006A4604214FF4BC
:100B8000587002F03EF938BD38B5044614B94FF03C
:100B9000FF3038BD6A4604214FF4717002F06EF9DF
:100BA00010B14FF0FF30F4E79DF8000000069DF80B
:100BB000011040EA01409DF8021040EA01209DF832
:100BC0000310084300EB8000800020600020E0E775
:100BD00038B504461420B4FBF0F4200E8DF8000064
:100BE000200C8DF80100200A8DF80200E0B28DF88B
:100BF00003006A4604214FF4717002F002F938BD17
:100C000038B5044664B120208DF8000028208DF806
:100C1000010030208DF8020038208DF8030004E038
:100C2000A3220421684605F0BCFE6A46042140F672
:100C30009E2002F0E6F800F07BFD38BD3C0100206C
:100C400000004843000040460000C0450000404509
:100C50000000C04438B5044664B1C0208DF80000DF
:100C6000C2208DF80100C4208DF80200C6208DF846
:100C7000030004E08B220421684605F092FE6A46D8
:100C8000042140F6982002F0BCF800F051FD38BD78
:100C90003EB504466CB1FBA1D1E900208968CDE9DD
:100CA000002002916A4609214FF4976002F0A9F8EA
:100CB0003EBDF7A2D2E900109268CDE90102009191
:100CC0006A4609214FF4976002F09BF8F0E73EB5C1
:100CD000044602208DF80000CA208DF80100E320B0
:100CE0008DF8020009208DF803006A46042168206F
:100CF00002F087F8A3208DF8000014F0400F09D00F
:100D0000C0208DF80100C8208DF80200C2208DF8A7
:100D1000030006E0A3208DF801008DF802008DF895
:100D2000030014F4C07F09D0C4208DF80400CC2047
:100D30008DF80500C6208DF8060006E0A3208DF88A
:100D400004008DF805008DF80600A3208DF807003B
:100D50008DF808008DF809006A460A2140F6A720A0
:100D600002F04FF814F0030F03D020208DF800009C
:100D700002E0D8208DF800006A46012140F6B62036
:100D800002F03FF814F0200F03D00120FFF780FF9E
:100D900002E00020FFF77CFF14F4C07F21D014F4A0
:100DA000807F0CD0B2208DF800008B208DF80100E0
:100DB000B6208DF802009B208DF803000BE0B020D8
:100DC0008DF8000080208DF80100B4208DF802001D
:100DD00090208DF803006A46042140F6A22002F01C
:100DE00010F814F0010F24D0F8208DF800006A46A6
:100DF00001214FF40B6002F004F8FA210720FFF7FD
:100E000029FD0720FFF7ECFD0120FFF70CFE642011
:100E1000FFF71CFE4FF4FA70FFF72BFEC8219F4826
:100E2000FFF73AFE2820FFF753FE0A20FFF763FE84
:100E300008E0D8208DF800006A4601214FF40B60CD
:100E400001F0DFFF14F0020F03D0D9208DF800006D
:100E500002E0D8208DF800006A46012140F23D7082
:100E600001F0CFFF14F0040F03D00120FFF7F2FED2
:100E700002E00020FFF7EEFE14F0100F03D0012077
:100E8000FFF7BEFE02E00020FFF7BAFE44F00800C4
:100E90008349488100F04CFC00208149887314F09C
:100EA000400F03D00846807B801D887314F4C07FF8
:100EB00004D07B48807B801D7949887314F0140F1F
:100EC00004D07748807B10307549887314F0030F85
:100ED00004D07348807B001D7149887300203EBD9B
:100EE00001466F4840890880002070472DE9F04195
:100EF0000446E07800F0C006E07800F03F05607836
:100F000010F0010F13D0EF102846E91705EB5171CF
:100F1000C910A5EBC101491C01F0FF086048006839
:100F200020B15F48414602683846904700BF60786C
:100F300010F0080F06D05A48406818B1B011584A4E
:100F4000516888470020BDE8F08110B586B004469E
:100F500054A207CA03AB07C355A207CA8DE807000E
:100F6000012C09D0022C0ED103AA0B2140F68220BD
:100F700001F047FF06B010BD6A460B2140F6822003
:100F800001F03FFFF6E74FF0FF30F3E72DE9F04FB8
:100F90008DB00746884615469946DDE9166B002454
:100FA000002030803E49887B5A4605A901F08EFA20
:100FB00018B1601E0DB0BDE8F08F3948807A10F08E
:100FC000140F7BD09DF8140000069DF8151040EA20
:100FD00001409DF8161040EA01209DF817100843C3
:100FE00028609DF8180000069DF8191040EA01409D
:100FF0009DF81A1040EA01209DF81B100843686014
:101000009DF81C0000069DF81D1040EA01409DF867
:101010001E1040EA01209DF81F100843A8609DF8AB
:10102000200000069DF8211040EA01409DF82210A2
:1010300040EA01209DF823100843E8601034286836
:1010400000140190686800140290A86800140390CE
:10105000E8680014049001984043029901FB0100E4
:10106000039901FB0100049901FB010ABAF1706FB9
:1010700002DBBAF1885F22DD00F05AFB00203080ED
:10108000401E97E7B8AAB38DB4980D355D000000F7
:10109000B8AAAAAAB088C3C5C700000009E3CA025B
:1010A0003C010020D8B1B9F38BA391B609B4D900A3
:1010B000DAB1B9F38BA391B6DAB4DA0005E0B6F988
:1010C000000040F48070308000BF3448807A10F017
:1010D000400F23D005A9601C085C095D40EA01208F
:1010E00000B2A8F8000005A9E01C095C05AAA01C34
:1010F000105C41EA002000B2A8F8020005A9601DBA
:10110000095C201D105C41EA002000B2A8F8040030
:10111000A41DB6F9000040F0080030801F48408947
:1011200010F4C07F20D005A9601C085C095D40EA6E
:10113000012000B2388005A9E01C095C05AAA01CAA
:10114000105C41EA002000B2788005A9601D095CAE
:10115000201D105C41EA002000B2B880A41DB6F941
:10116000000040F0700030800C48807A10F0030FCF
:1011700003D005A90819FFF7B9FE00F0C8F8C9F8AF
:101180000000002016E70146044801600020704777
:101190000146024841600020704700003C010020E9
:1011A0000120364908707047014691F90020002A55
:1011B00001DD00201EE091F90020002A01DA042060
:1011C00018E091F90120002A01DD012012E091F9D7
:1011D0000120002A01DA05200CE091F90220002A02
:1011E00001DD022006E091F90220002A01DA062042
:1011F00000E00720704770B505462846FFF7D4FF8A
:101200000446E81CFFF7D0FF44EAC00084B2A81DE2
:10121000FFF7CAFF44EA801084B2204670BD7CB557
:101220001748009040F20220ADF8040001208DF82C
:1012300006008DF80700684600F00FFD782000F0EA
:101240006EF9782000F058FB4FF47A7000F035FC0E
:10125000FFF7F0F840F273142046FFF738FD094815
:10126000FFF7C9FF0546FFF7EFF86420FFF7A7FA7D
:10127000012001F0F6FC024800907CBD81000020B6
:10128000A111000878000020002008E0002101E002
:101290004A1C91B2B1F57A7FFADB421C90B2B0F5EC
:1012A0007A7FF3DD70473849086000BF3649096826
:1012B0000029FBD1704730B500BF344800684FF4B7
:1012C0007A72B0FBF2F1B1F1807F01D301201BE013
:1012D00021F07F40401E4FF0E022506150170F2256
:1012E000002806DA13012A4C00F00F052D1F635564
:1012F00002E01301274C235400BF00204FF0E022EE
:1013000090610720106100200028D6D130BD22480E
:101310000068224908600846006870471B4800685A
:101320004FF47A71B0FBF1F04FF0E0218969401A77
:101330001949096801EB4102C2EBC11100EBC10080
:101340000021704708B54FF4A06003F0EBFAFF20CE
:101350008DF8000000208DF801008DF802000120BA
:101360008DF80300684603F0E2FA1C208DF80000B7
:1013700000208DF8010001208DF802008DF8030097
:10138000684603F0D4FA08BD88000020F000002071
:1013900018ED00E000E400E00000002084000020E0
:1013A00038B50446FC4890F82400C0B114B10220BE
:1013B000009001E000200090F74A1268517CF64A44
:1013C000526810786B46012202F0BCF810B14FF061
:1013D000FF3038BD9DF80010EF48417423E0EE481F
:1013E000807A10B94FF0FF30F3E724B1EA48407C2F
:1013F00008B10020EDE714B10120009001E00020C9
:101400000090E54A1268517CE34A526810786B46B6
:10141000012202F097F810B14FF0FF30D9E79DF8A4
:101420000010DD4841740020D3E738B500241BE0EC
:10143000D9480068407BA04204D0D7480068007EAD
:10144000A04200D10EE0D449496808786B460122D9
:10145000214602F088F810B14FF0FF3038BD00BFD0
:1014600000BF00BF601CC4B2CB4840680079A042F6
:10147000DEDC0020F2E770B504460D46C648006881
:10148000407BA04204D0C4480068007EA04202D144
:101490004FF0FF3070BDC04840680079A04202DCC8
:1014A0004FF0FF30F6E7BC49496808782B46012227
:1014B000214602F058F8EDE738B50446B64890F8F2
:1014C0002300A04201D1002038BD14B1302000908B
:1014D00001E000200090B048807C20B19DF8000021
:1014E00040F002000090AC4890F8220020B19DF836
:1014F000000040F080000090A74A1268D17DA64A03
:10150000526810786B46012202F01CF810B14FF0BF
:10151000FF30D9E7A04880F823400020D4E738B551
:10152000044614F0700F02D00120009005E014B1C1
:101530000020009001E040200090974A1268517D01
:10154000954A526810786B46012201F0FBFF20B1EA
:10155000002191488172481E38BD9DF8000020F09E
:1015600040018D4801730020009014F0400F04D119
:101570009DF8000040F00400009014F0200F04D10A
:101580009DF8000040F00200009014F0100F04D10C
:101590009DF8000040F00100009014F0080F04D105
:1015A0009DF8000040F0380000907B4A1268917D61
:1015B000794A526810786B46012201F0C3FF20B1CE
:1015C000002175488172481EC6E724B1082C02D05C
:1015D0000020FFF771FF70488472002101753220EE
:1015E000FFF761FE0020B7E738B504466A48807C03
:1015F000A04201D1002038BD002C46D0664A1268B6
:101600001179654A526810786B46012201F0ABFFF0
:1016100010B14FF0FF30EEE79DF8000020F0200001
:1016200000905D4A126811795B4A526810786B46E7
:10163000012201F087FF10B14FF0FF30DBE70320FC
:10164000FFF731FE02200090534890F8220020B1AD
:101650009DF8000040F0800000904F4890F8230073
:1016600020B19DF8000040F0300000904A4A126816
:10167000D17D494A526810786B46012201F062FF21
:10168000002851D04FF0FF30B5E7434A1268117976
:10169000414A526810786B46012201F064FF10B194
:1016A0004FF0FF30A7E73C48807A10F0010F05D0DB
:1016B0009DF8000040F02000009004E09DF800003C
:1016C00020F020000090344A12681179324A5268A2
:1016D00010786B46012201F035FF10B14FF0FF305A
:1016E00089E70320FFF7DFFD2B4890F8220010B1B7
:1016F0008020009001E000200090274890F823000F
:1017000020B19DF8000040F030000090224A12689D
:10171000D17D214A526810786B46012201F012FFF8
:1017200010B14FF0FF3066E71B488474002062E779
:1017300008B51948807A10B94FF0FF3008BD002075
:101740000090154A1268517C134A526810786B4613
:10175000012201F0F7FE10B14FF0FF30EEE70E4A24
:10176000126851790C4A526810786B46012201F0D8
:10177000E9FE10B14FF0FF30E0E7074A1268117937
:10178000054A526810786B46012201F0DBFE28B151
:101790004FF0FF30D2E700008C000020F74890F8AF
:1017A0002400002853D00C200090F44A12681179CC
:1017B000F24A526810786B46012201F0C3FE10B164
:1017C0004FF0FF30BAE73220FFF76DFDC0200090E8
:1017D000EA48807A10F0010F04D09DF8000040F034
:1017E00020000090E54A12681179E44A52681078A6
:1017F0006B46012201F0A6FE10B14FF0FF309DE7CD
:10180000DE48407C10B10220009001E000200090F2
:10181000DA4A1268517CD94A526810786B46012224
:1018200001F090FE10B14FF0FF3087E700200090EC
:10183000D24A12685179D14A526810786B46012217
:1018400001F080FE002855D04FF0FF3076E70420ED
:101850000090CA4A12681179C84A526810786B46DB
:10186000012201F06FFE10B14FF0FF3066E7C34870
:10187000807C20B9C148807A10F0010F02D140204D
:10188000009001E060200090BC4A12681179BB4AC8
:10189000526810786B46012201F054FE10B14FF0EF
:1018A000FF304BE73220FFF7FEFCB448407C10B11C
:1018B0000120009001E000200090B04A1268517CA5
:1018C000AE4A526810786B46012201F03BFE10B11F
:1018D0004FF0FF3032E7A94A12685179A74A52689F
:1018E0001078A64B1033012201F02CFE10B14FF0FE
:1018F000FF3023E7002021E770B50446002624F0DE
:1019000001049E4890F8240008B1002070BD9B4857
:10191000807A10B94FF0FF30F8E79848057C807A5C
:101920002040964908740846007CA04202D04FF03F
:10193000FF3600E0002614B99048007D18B1012060
:10194000FFF72EFD02E00020FFF72AFD3CB1FFF774
:10195000EFFE20B1894805744FF0FF30D6E73046DE
:10196000D4E738B504468548807A10B94FF0FF3087
:1019700038BDBC2C02DB0120009015E0622C02DB9C
:101980000220009010E02A2C02DB032000900BE0E4
:10199000142C02DB0420009006E00A2C02DB052058
:1019A000009001E0062000907448C07A9DF8001075
:1019B000884201D10020DBE7704A126891786F4AB3
:1019C000526810786B46012201F0BCFD10B14FF057
:1019D000FF30CDE79DF800106848C1720020C7E7CE
:1019E00038B50446282C02DD4FF0FF3038BDDCB995
:1019F0000020FFF761FD00208DF8000007208DF822
:101A000001005E4A1268517D5C4A526810786B464C
:101A1000022201F097FD10B14FF0FF30E6E7002100
:101A2000564801750020E1E70120FFF745FD202021
:101A30008DF80000012C06D100208DF80100052052
:101A4000FFF78FFF17E0052C06DC01208DF8010061
:101A50000520FFF786FF0EE0142C06DC02208DF82F
:101A600001000A20FFF77DFF05E003208DF801004B
:101A70001420FFF776FF9DF80100072101EB80108D
:101A8000C0B28DF801003D4A1268517D3B4A526850
:101A900010786B46022201F055FD10B14FF0FF3077
:101AA000A4E70821354881720021017301210175E5
:101AB0000020FFF721FF002098E738B504462F48A3
:101AC000807A10B94FF0FF3038BD2C4890F82400D0
:101AD00010B14FF0FF30F7E72848007D50B134B126
:101AE000282C04DCE0B2FFF77BFF0020ECE70020AD
:101AF000FFF776FF042C01DA042404E0B4F57A7FC2
:101B000001DD4FF47A744FF47A7090FBF4F0401ECC
:101B1000C0B20090194A12685178184A5268107879
:101B20006B46012201F00EFD10B14FF0FF30CBE704
:101B30009DF80000401C4FF47A7191FBF0F081B2E7
:101B40000E48C1810146C9894810FFF70AFF0020ED
:101B5000BAE738B504460948807A10B94FF0FF302B
:101B600038BD022C06D0042C0AD0082C0BD0102C27
:101B70000FD10BE0002000900EE000008C00002050
:101B80000820009008E01020009005E01820009048
:101B900002E04FF0FF30E3E700BFFA48407A9DF8DB
:101BA0000010B0EBE10F01D10020D9E7F54A12682F
:101BB000D179F44A526810786B46012201F0C2FCD8
:101BC00010B14FF0FF30CBE79DF80000C110ED4899
:101BD00041720020C4E738B50446EA48807A10B95B
:101BE0004FF0FF3038BDFA2C09D0B4F5FA7F09D098
:101BF000B4F57A7F09D0B4F5FA6F0CD108E0002073
:101C000000900BE00820009008E01020009005E014
:101C10001820009002E04FF0FF30E3E700BFD94802
:101C2000007A9DF80010B0EBE10F01D10020D9E758
:101C3000D44A12689179D34A526810786B460122CF
:101C400001F080FC10B14FF0FF30CBE79DF80000B1
:101C5000C010CC4908720020C4E77CB5054680203E
:101C60008DF80000C74A1268517DC64A5268107844
:101C70006B46012201F066FC10B14FF0FF307CBDD5
:101C80006420FFF710FB00208DF80000BD4A1268A9
:101C9000517DBC4A526810786B46012201F052FC1B
:101CA00010B14FF0FF30EAE7B64A1268517EB54AEC
:101CB000526810786B46062201F055FC10B14FF0C7
:101CC000FF30DCE79DF80500C007400F9DF80310CA
:101CD00001F0010140EA41009DF8011001F001010D
:101CE00040EA010484B1012C03D10121A548C1744B
:101CF0002DE0022C03D10021A248C17427E000BFCF
:101D000000BF4FF0FF30BAE79E4A1268D1789D4A73
:101D1000526810786B46012201F025FC10B14FF09B
:101D2000FF30ACE79DF8000000F00F0424B900BFBD
:101D300000BF4FF0FF30A2E7042C05D100BF00BF69
:101D400001219048C17402E000218E48C174FF2136
:101D50008C488172FF208B490872FF2189484172AB
:101D6000C1724FF6FF71C181FF210174817401219D
:101D7000017380F82210002180F82310417501754D
:101D80001630016041608160163880F8241080F8B8
:101D900025104FF47A71C1844800FFF71CFF10B181
:101DA0004FF0FF306BE70220FFF7D3FE10B14FF08A
:101DB000FF3064E76220FFF7D4FD10B14FF0FF3031
:101DC0005DE74FF47A70FFF778FE10B14FF0FF3007
:101DD00055E70020FFF790FD10B14FF0FF304EE7C0
:101DE0000020FFF701FC10B14FF0FF3047E7002063
:101DF000FFF795FB002042E77CB504460D4661489D
:101E0000807A10F0700F02D14FF0FF307CBD5D4A38
:101E10001268917B5B4A526810786B46062201F08B
:101E2000A2FB10B14FF0FF30F0E79DF801009DF8E4
:101E3000001040EA012000B220809DF803009DF8C8
:101E4000021040EA012000B260809DF805009DF874
:101E5000041040EA012000B2A080FFF758FA286081
:101E60000020D3E77CB504460D464648807A10F042
:101E7000080F02D14FF0FF307CBD424A1268D17B7F
:101E8000404A526810786B46062201F06CFB10B194
:101E90004FF0FF30F0E79DF801009DF8001040EA98
:101EA000012000B220809DF803009DF8021040EA56
:101EB000012000B260809DF805009DF8041040EA02
:101EC000012000B2A080FFF722FA28600020D3E7AB
:101ED0002DE9FE4F04460D462A48807A18B94FF086
:101EE000FF30BDE8FE8F274A1268117C254A5268F0
:101EF000107802AB022201F036FB10B14FF0FF3038
:101F0000EFE79DF809009DF8081040EA012006B2AD
:101F1000FFF7FDF928601B494968C88804F0A9FE4D
:101F2000184901904968B1F9080004F099FE834608
:101F3000304604F095FE5946009004F0A3FD824619
:101F4000019904F0DBFD81460F4904F049FD80460C
:101F50004FF08F4104F09CFD074604F0ADFE206079
:101F60000020BEE710B588B004461CB94FF0FF3022
:101F700008B010BD206848B9606838B9A06828B9B1
:101F80000020F5E78C00002000000C42F849496869
:101F9000087806AB0322114601F0E5FA10B14FF0C4
:101FA000FF30E5E79DF81800082101EB201000F054
:101FB0000F00ADF800009DF8190001EB201000F0B3
:101FC0000F00ADF802009DF81A0001EB201000F0A0
:101FD0000F00ADF8040020684100BDF9000040305A
:101FE00091FBF0F000B2ADF8100060684100BDF95F
:101FF0000200403091FBF0F000B2ADF81200A06892
:102000004100BDF90400403091FBF0F000B2ADF8A2
:102010001400D7494968087806AB0622114601F03A
:10202000A2FA10B14FF0FF30A2E79DF819009DF819
:10203000181040EA012000B2ADF808009DF81B001E
:102040009DF81A1040EA012000B2ADF80A009DF890
:102050001D009DF81C1040EA012000B2ADF80C00F4
:10206000BDF81000BDF80810084400B2ADF810002B
:10207000BDF81200BDF80A10084400B2ADF8120015
:10208000BDF81400BDF80C10084400B2ADF81400FF
:10209000BDF81000000A8DF81800BDF81000C0B29D
:1020A0008DF81900BDF81200000A8DF81A00BDF86D
:1020B0001200C0B28DF81B00BDF81400000A8DF8A4
:1020C0001C00BDF81400C0B28DF81D00A849496875
:1020D000087806AB0622114601F034FA10B14FF031
:1020E000FF3045E7002043E70146A148007A30B1C0
:1020F000012807D0022809D003280FD10AE0FA20CE
:1021000008800EE04FF4FA7008800AE04FF47A700D
:10211000088006E04FF4FA60088002E000200880A2
:1021200000BF00BF0020704701469148407A30B19F
:10213000012807D0022808D003280CD108E002208B
:1021400008700BE00420087008E00820087005E023
:102150001020087002E04FF0FF30704700BF844845
:10216000C07C18B108784006000E08700020F4E723
:1021700001467F48C07A082817D2DFE800F017042C
:10218000070A0D101318BC20088013E06220088095
:1021900010E02A2008800DE0142008800AE00A20C0
:1021A000088007E00520088004E000BF00BF002091
:1021B000088000BF00BF0020704701466C4890F8BF
:1021C000240010B14FF0FF3070476948C089088083
:1021D0000020F9E7014600200880401E70470146B4
:1021E0004FF0FF30704701466148007A30B1012856
:1021F00007D0022808D003280CD108E05D48086009
:102200000BE05D48086008E05C48086005E05C4859
:10221000086002E04FF0FF30704700BF0020FBE78E
:1022200001465348407A30B1012808D002280AD02C
:10223000032810D10BE04FF4804008800EE041F6F7
:102240009C7008800AE04FF48050088006E04FF44C
:102250000060088002E04FF0FF30704700BF444844
:10226000C07C10B10888401008800020F5E70146C6
:102270003F48007C08700020704701463C48807A47
:1022800010B10120087001E00020087000207047A4
:1022900038B504463648807A10B94FF0FF3038BD63
:1022A000334A1268917C324A526810786B46022297
:1022B00001F059F910B14FF0FF30F0E79DF801003F
:1022C0009DF8001040EA012000B220800020E6E7DF
:1022D0002DE9FE4F0746884692461D46DDF830B090
:1022E00000260024224890F8240010B1601EBDE8AA
:1022F000FE8F002028701E48807A10B94FF0FF3002
:10230000F5E71B48007C10B94FF0FF30EFE71848A5
:10231000007C10F0400F00D0B61C1548007C10F077
:10232000200F00D0B61C1248007C10F0100F00D017
:10233000B61C0F48007C10F0080F00D0B61D0C4AE8
:102340001268117B0A4A526810786B46022201F02B
:102350000AF910B14FF0FF30C9E79DF801009DF870
:10236000001040EA0129B1450CDA0020BFE7000067
:102370008C000020000003430000834233330342FB
:1023800033338341F94840684088B9EB600F17DD6B
:10239000F64A1268D17CF54A526810786B460122E1
:1023A00001F0E1F810B14FF0FF30A0E79DF8000018
:1023B00010F0100F04D0FFF7BBF96FF0010096E7A3
:1023C000FEF7A5FFCAF80000E84A1268517BE74A09
:1023D000526810786B46324601F0C5F810B14FF0E4
:1023E000FF3084E799FBF6F0401E8BF800000020D8
:1023F0002870B44229D0DD48007C10F0080F24D0AA
:10240000601C1DF800001DF8041040EA012000B215
:10241000A8F80000E01C1DF80010A01C1DF800002A
:1024200041EA002000B2A8F80200601D1DF800106B
:10243000201D1DF8000041EA002000B2A8F80400A9
:10244000287840F008002870A41DB44212D0C74874
:10245000007C10F0400F0DD0601C1DF800001DF82E
:10246000041040EA012000B23880287840F0400093
:102470002870A41CB44212D0BC48007C10F0200F7D
:102480000DD0601C1DF800001DF8041040EA01206A
:1024900000B27880287840F020002870A41CB44254
:1024A00012D0B248007C10F0100F0DD0601C1DF847
:1024B00000001DF8041040EA012000B2B88028781E
:1024C00040F010002870A41C002010E7F8B5044666
:1024D0000F461646A54890F8240010B94FF0FF307B
:1024E000F8BDA248807A10B94FF0FF30F8E79F4A54
:1024F0001268117B9D4A526810786B46022201F0E7
:1025000032F810B14FF0FF30EAE79DF801009DF876
:10251000001040EA0125A54203DA00203070401E79
:10252000DEE7924840684088B5EB600F17DD8F4AC0
:102530001268D17C8D4A526810786B46012201F0F6
:1025400012F810B14FF0FF30CAE79DF8000010F00C
:10255000100F04D0FFF7ECF86FF00100C0E7E2B213
:10256000824B1B68597B814B5B6818783B4600F0B7
:10257000FAFF10B14FF0FF30B2E795FBF4F0401EC8
:1025800030700020ACE70146784880F82210002027
:1025900070477CB5054675494968087801AB042247
:1025A0000D2100F0E0FF08B107207CBD9DF8070079
:1025B000C0F301109DF8041001F0E00140EAE100D1
:1025C0008DF800009DF80700C0F381009DF805100C
:1025D00001F0E00140EAE1008DF801009DF80700FC
:1025E00000F003009DF8061001F0E00140EAE10070
:1025F0008DF8020000241CE01DF8040018B900202A
:1026000045F8240013E05A4845F8240006E055F840
:102610002400584904F03CFA45F824001DF8040051
:10262000401E10F0FF000DF80400F0D100BF601C48
:10263000C4B2032CE0DB0020B7E72DE9FE4F0746CC
:10264000884600266846FFF7A4FF002442E057F8BA
:10265000240058F82410B0EB010A01D4514601E0DF
:10266000CAF10001084604F0FBFA83464FF08F419F
:1026700004F044FA81465DF82400002104F0A0FB38
:1026800018D05DF82410484604F038FA82464FF01E
:102690007E5104F0F7F9054600BF25F00040824660
:1026A0003548416A504604F095FB12D20120A04003
:1026B00006430EE03048C169484604F081FB05D36B
:1026C0002D48016A484604F085FB02D20120A04053
:1026D0000643641C032CBADB3046BDE8FE8F2DE9AF
:1026E000FC5F07468846002620494968087801AB08
:1026F00003220D2100F037FF10B10720BDE8FC9F39
:102700009DF8040000F01F008DF804009DF80500FE
:1027100000F01F008DF805009DF8060000F01F0076
:102720008DF80600002461E057F8240058F82410C2
:10273000B0EB010B01D4594601E0CBF10001084692
:1027400004F08EFA4FF08F41009004F0D7F98246E2
:1027500001A8005DC8B30849086804F08AFA8346F6
:102760005946064804F0CAF981460EE08C00002064
:102770007B14AE3E1D5A843F707C000800B04C456F
:10278000FE49484604F084F9814601A8005D401ED8
:1027900010F0FF0001A90855F2D14946504604F057
:1027A000ADF983464FF07E5104F06CF9054600BF49
:1027B00025F000408346F2488169584604F00AFB40
:1027C00013D20120A04006430FE0FFE7EC48016967
:1027D000504604F0F5FA05D3E9484169504604F043
:1027E000F9FA02D20120A0400643641C032C9BDBB3
:1027F000304683E72DE9F04F87B005460C469146F9
:1028000001208DF8100000208DF81100DD4A1268BB
:10281000517DDC4A5268107804AB022200F092FE2F
:1028200020B14FF0FF3007B0BDE8F08FC820FEF7B1
:102830003AFD00208DF81000D24A1268517CD14A2E
:102840005268107804AB012200F07CFE10B14FF00A
:10285000FF30E8E7CB4A12685179CA4A52681078CB
:1028600004AB012200F06EFE10B14FF0FF30DAE74A
:10287000C44A1268517DC34A5268107804AB0122E1
:1028800000F060FE10B14FF0FF30CCE7BD4A126897
:10289000917EBC4A5268107804AB012200F052FECF
:1028A00010B14FF0FF30BEE7B64A12681179B54A51
:1028B0005268107804AB012200F044FE10B14FF0D2
:1028C000FF30B0E70C208DF81000AE4A1268117985
:1028D000AC4A5268107804AB012200F033FE10B10C
:1028E0004FF0FF309FE70F20FEF7DDFCA548806A20
:1028F000407A8DF81000A34A12689178A14A526874
:10290000107804AB012200F01DFE10B14FF0FF3033
:1029100089E79C48806A007A8DF81000994A12680D
:102920005178984A5268107804AB012200F00AFEF0
:1029300010B14FF0FF3076E7B9F1000F07D09148A2
:10294000806A807A40F0E0008DF8100004E08D4845
:10295000806A807A8DF810008A4A12689179894AD3
:102960005268107804AB012200F0ECFD10B14FF07A
:10297000FF3058E7B9F1000F07D08248806AC07A6B
:1029800040F0E0008DF8100003E07D48C07A8DF83B
:1029900010007C4A1268D1797A4A5268107804ABE8
:1029A000012200F0CFFD10B14FF0FF303BE7B9F14D
:1029B000000F02D0C820FEF776FC40208DF81000F2
:1029C000704A126811796F4A5268107804AB01227C
:1029D00000F0B8FD10B14FF0FF3024E778208DF8FB
:1029E0001000684A12685179664A5268107804AB40
:1029F000012200F0A7FD10B14FF0FF3013E760494E
:102A00008889FEF750FC00208DF810005D4A12689E
:102A100051795C4A5268107804AB012200F092FDB3
:102A200010B14FF0FF30FEE6564A1268117B554A4E
:102A30005268107804AB022200F095FD10B14FF0FF
:102A4000FF30F0E69DF811009DF8101040EA012BD0
:102A50000C209BFBF0F0C6B20020A86068602860E4
:102A6000A06060602060824665E0464A1268517B43
:102A7000444A5268107804AB0C2200F074FD10B187
:102A80004FF0FF30CFE69DF811009DF8101040EA9E
:102A9000012000B2ADF808009DF813009DF8121057
:102AA00040EA012000B2ADF80A009DF815009DF83B
:102AB000141040EA012000B2ADF80C00BDF9081076
:102AC000206808442060BDF90A106068084460600E
:102AD000BDF90C10A0680844A0609DF817009DF88F
:102AE000161040EA012000B2ADF800009DF8190070
:102AF0009DF8181040EA012000B2ADF802009DF8E0
:102B00001B009DF81A1040EA012000B2ADF8040045
:102B1000BDF90010286808442860BDF902106868F3
:102B200008446860BDF90410A8680844A8600AF168
:102B3000010000F0FF0AB24597DB1148D0F800C051
:102B40002868C117090441EA1041070462460023BE
:102B5000384603F0E7FE32460023CDE9020103F0D8
:102B6000E1FE28600648D0F800C06868C117090473
:102B700041EA104107046246002305E054E3853F23
:102B8000707C00088C000020384603F0CBFE3246F3
:102B90000023CDE9020103F0C5FE6860FE48D0F8CD
:102BA00000C0A868C117090441EA10410704624641
:102BB0000023384603F0B6FE32460023CDE9020179
:102BC00003F0B0FEA860F448D0F804C02168C8172C
:102BD000000440EA11480F0462460023384641468B
:102BE00003F0A0FE32460023CDE9020103F09AFE75
:102BF0002060E948D0F804C06068C117090441EAC0
:102C00001041070462460023384603F08BFE32462B
:102C10000023CDE9020103F085FE6060DE48D0F8B4
:102C200004C0A068C117090441EA104107046246C4
:102C30000023384603F076FE32460023CDE9020138
:102C400003F070FEA060A068002804DDA068A0F575
:102C50008030A06003E0A06800F58030A060002014
:102C6000E1E538B50446CD4890F82400A04201D1F2
:102C7000002038BD24B3C94890F8250010B94FF0A2
:102C8000FF30F6E70020FEF78BFB0120FEF7ACFCDF
:102C9000C249C88CFEF711FF00200090BF49496867
:102CA00008786B460122232100F04CFC0121BB482F
:102CB00080F824100120FEF773FBFEF739FD13E0C6
:102CC0000020FEF76DFBB548007C0090B3494968D1
:102CD00008786B460122232100F034FC0021AF4824
:102CE00080F82410FEF724FD0020C2E72DE9F04F04
:102CF0008DB083460F4602200C90A84890F824001F
:102D000020B10020FFF7ADFF012600E0002603A858
:102D1000FFF7EAF905A8FFF707FA01A8FFF728FA75
:102D200002A8FFF74AFA9D4890F80AA004A8FFF706
:102D30009EFA002407E0002239465846FFF75AFD64
:102D400000B902E0641C022CF5DB00BF022C01D1AB
:102D5000002528E0002407E0012206A909A8FFF7C2
:102D600049FD00B902E0641C022CF5DB00BF022C17
:102D700001D1002517E006A93846FFF75EFC00F0F8
:102D8000FF0809A95846FFF7AAFC00F0FF09002533
:102D9000B9F1000F01D145F00105B8F1000F01D1E3
:102DA00045F0020500BFFF207C490872FF217B48E7
:102DB0004172C1724FF6FF71C181FF2181720174AE
:102DC00001210173BDF80C00FEF705FF9DF814000A
:102DD000FEF7BFFEBDF80400FEF7C3FDBDF8080016
:102DE000FEF76BFE5046FEF79AFB9DF81000FEF7CB
:102DF00083FD16B10120FFF734FF28460DB0BDE872
:102E0000F08FF8B504460D46164616B94FF0FF3060
:102E1000F8BD6248807A10B94FF0FF30F8E7201211
:102E20008DF80000E0B28DF801009DF80100284403
:102E30005A4949684989884202DD4FF0FF30E7E787
:102E4000564A1268D17E554A526810786B46022263
:102E500000F078FB10B14FF0FF30D9E7EAB24F4BEA
:102E60001B68197E4D4B5B681878334600F06AFB8F
:102E700010B14FF0FF30CBE70020C9E7F8B50446AA
:102E80000D46164616B94FF0FF30F8BD4348807A1C
:102E900010B94FF0FF30F8E720128DF80000E0B2D3
:102EA0008DF801009DF8010028443C494968498992
:102EB000884202DD4FF0FF30E7E7384A1268D17EE2
:102EC000364A526810786B46022200F03BFB10B184
:102ED0004FF0FF30D9E7EAB2304B1B68197E2F4B19
:102EE0005B681878334600F03EFB10B14FF0FF30BE
:102EF000CBE70020C9E72DE9F04385B005460E4633
:102F000090469946254890F8250020B14FF0FF30B3
:102F100005B0BDE8F08316B94FF0FF30F8E70024A4
:102F200023E0281B102801DD102000E0281B87B2B9
:102F3000321939462046FFF764FF10B14FF0FF30D9
:102F4000E6E701AA39462046FFF798FF10B14FF097
:102F5000FF30DDE730193A4601A903F034FD10B126
:102F60006FF00100D4E7E01984B2AC42D9DB4FEA3C
:102F700028208DF8000008F0FF008DF80100074AB6
:102F80001268517F054A526810786B46022200F0A1
:102F9000D9FA40B104E00000707C00088C000020E9
:102FA0004FF0FF30B4E70121864880F82510A0F8E3
:102FB00026900020ACE70146824890F82400087073
:102FC00000207047F8B505460F461446002C70D017
:102FD000B5F5FF5F01DDFF2605E0202D01DA0126B2
:102FE00001E0C5F3471607B90127282C02DD4FF091
:102FF000FF30F8BD7348407D28BB724890F824002C
:1030000038B10020FFF72DFE01216E4880F8201016
:1030100003E000216B4880F820106A481630FFF763
:1030200063F868481830FFF77FF866481A30FFF7F2
:103030009FF864481C30FFF7C0F86248817A8177B6
:103040001F30FFF714F90020FEF7AAF90020FEF761
:10305000C7FC00208DF800005A4A12689178594A3E
:10306000526810786B46012200F06CFA10B14FF0F4
:10307000FF30BEE740208DF80000524A1268517CB4
:10308000504A526810786B46012200F05BFA00B19A
:1030900065E08DF800608DF801704A4A1268917AF7
:1030A000484A526810786B46022200F04BFA08B189
:1030B00055E047E00520FEF7F6F84248407A072140
:1030C00001EBC000C0B28DF800003E4A1268D17911
:1030D0003C4A526810786B46012200F033FA00B186
:1030E0003DE020208DF80000012C03D100208DF858
:1030F00001000EE0052C03DC01208DF8010008E042
:10310000142C03DC02208DF8010002E003208DF86E
:1031100001009DF80100072101EB8010C0B28DF87D
:103120000100284A1268517D264A526810786B4681
:10313000022200F007FA00B111E001212148417597
:10314000002056E71F4A1632002103E0505C00B110
:1031500005E0491C0C29F9D34FF0FF3049E7FF2067
:1031600018490872FF2117484172C1724FF6FF716A
:10317000C181FF2181720174012101730146887FA1
:10318000FEF7CDF90F49C88AFEF725FD0D49087EE7
:10319000FEF7DFFC0B49488BFEF7E3FB0949888B00
:1031A000FEF78BFC0749C87FFEF7A6FB054890F8A1
:1031B000200010B10120FFF754FD002101484175A6
:1031C000002016E78C0000202DE9F04704460D464C
:1031D00090469946089EFE48844201D1074603E086
:1031E000FC48844200D107464FF47A70FA490880BF
:1031F0000DE0F94801880088401EF74A108009B1A7
:10320000012000E0002010B90020BDE8F0874FF455
:103210000031384601F05EFF0028EAD106B9F4E734
:103220000121384601F053FE4FF47A70EA490880D4
:103230000CE0E94801880088401EE74A108009B187
:10324000012000E0002008B90020DEE7E34938460D
:1032500001F01EFF0028ECD000224146384601F064
:103260008CFE4FF47A70DC4908800CE0DA48018863
:103270000088401ED84A108009B1012000E00020DB
:1032800008B90020C1E7D649384601F001FF0028FF
:10329000ECD04946384601F06AFE4FF47A70CE49C8
:1032A00008800CE0CC4801880088401ECA4A108083
:1032B00009B1012000E0002008B90020A5E7C849B5
:1032C000891E384601F0E4FE0028EBD04FF47A70F6
:1032D000C14908800CE0C04801880088401EBE4AF1
:1032E000108009B1012000E0002008B900208CE71F
:1032F000BB49891C384601F0CBFE0028EBD038E0F2
:103300002978384601F033FE4FF47A70B2490880CC
:103310000CE0B14801880088401EAF4A108009B116
:10332000012000E0002008B900206EE7AC49891EAA
:10333000384601F0ADFE0028EBD04FF47A70A64974
:1033400008800CE0A44801880088401EA24A108032
:1033500009B1012000E0002008B9002055E7A0498C
:10336000891C384601F094FE0028EBD06D1C701EBD
:10337000C6B2012EC4DA0121384601F0B4FD0120A5
:1033800043E72DE9F04705460E4690469946089CCE
:1033900014B90020BDE8F0878D48854201D1074669
:1033A00003E08C48854200D107464FF47A708A4981
:1033B00008800CE0884801880088401E864A1080FA
:1033C00009B1012000E0002008B90020E2E74FF435
:1033D0000031384601F07EFE0028EBD1012138464D
:1033E00001F075FD4FF47A707B4908800CE07A4853
:1033F00001880088401E784A108009B1012000E051
:10340000002008B90020C5E77449384601F040FEA5
:103410000028ECD000224146384601F0AEFD4FF4C2
:103420007A706D4908800CE06B4801880088401E66
:10343000694A108009B1012000E0002008B900208D
:10344000A8E76749384601F023FE0028ECD049463A
:10345000384601F08CFD4FF47A705F4908800CE02B
:103460005D4801880088401E5B4A108009B1012038
:1034700000E0002008B900208CE75949891C384633
:1034800001F006FE0028EBD00121384601F01FFDB7
:103490004FF47A70504908800CE04F48018800884A
:1034A000401E4D4A108009B1012000E0002008B9FB
:1034B00000206FE74949384601F0EAFD0028ECD0CA
:1034C00001224146384601F058FD4FF47A704249D6
:1034D00008800CE0404801880088401E3E4A108069
:1034E00009B1012000E0002008B9002052E73B4963
:1034F000491C384601F0CCFD0028EBD001213846AC
:1035000001F0FDFC16E0012C07D10021384601F046
:10351000F6FC0121384601F0E6FC30493F313846DF
:1035200001F0B6FD30B1384601F023FD3070761C55
:10353000601E84B2002CE6D10121384601F0DFFC88
:10354000012027E7F8B504460D4616461F462B46D0
:10355000224639461E480096FFF736FE08B1002085
:10356000F8BD0120FCE7F8B504460D4616461F4697
:103570002B462246394616480096FFF702FF08B14F
:103580000020F8BD0120FCE70FB410B50446182256
:1035900003A9201D03F0F3F910BC5DF814FB0146EC
:1035A000081D704738B5044609496069884270D1E2
:1035B0000121082001F03CFF0121480501F045FFF1
:1035C0000021034801F05FFC0648006800900BE012
:1035D0000054004000580040B800002001000300E3
:1035E00082000700987C00086946F74801F068FAF5
:1035F000C021F54801F00FFB208BA08309E0A18BCF
:10360000481EA08309B1012000E0002008B9002075
:1036100038BD4021EC4801F0E4FA28B18021EA48A5
:1036200001F0DFFA0128EAD18021E74801F0F5FA3C
:10363000208BA08309E0A18B481EA08309B1012043
:1036400000E0002008B90020E2E78021DE4801F018
:10365000C8FA0028EFD14021DB4801F0DEFA208BC8
:10366000A08309E0A18B481EA08309B1012000E0DE
:10367000002008B90020CBE74021D34801F0B1FA7F
:103680000028EFD14021D04801F0C5FA208BA0835B
:103690000AE044E0A18B481EA08309B1012000E0AC
:1036A000002008B90020B3E74021C74801F099FA8B
:1036B0000128EFD18021C44801F0ADFA208BA0830E
:1036C00009E0A18B481EA08309B1012000E0002081
:1036D00008B900209CE78021BB4801F082FA01284C
:1036E000EFD11C208DF80300C020ADF800000320AE
:1036F0008DF802006946B44801F0E2F90121B348AF
:1037000001F04FFC0021B14801F04BFC0121AF4812
:1037100001F0B9FB211DAD4801F037FBB7E0AC4922
:1037200060698842FAD10121082001F081FE01215F
:10373000880501F08AFE0021A54801F0A4FBA548F8
:10374000006800906946A04801F0BAF94FF4406162
:103750009D4801F060FA208BA08309E0A18B481EF0
:10376000A08309B1012000E0002008B900204FE744
:103770004FF48061944801F034FA30B14FF40061A5
:10378000914801F02EFA0128E8D14FF400618E48EB
:1037900001F043FA208BA08309E0A18B481EA0838F
:1037A00009B1012000E0002008B9002030E74FF403
:1037B0000061854801F015FA0028EED14FF48061D0
:1037C000814801F02AFA208BA08309E0A18B481ED2
:1037D000A08309B1012000E0002008B9002017E70C
:1037E0004FF48061784801F0FCF90028EED14FF4E5
:1037F0008061754801F00FFA208BA08309E0A18B4E
:10380000481EA08309B1012000E0002008B9002073
:10381000FEE64FF480616C4801F0E3F90128EED137
:10382000C102694801F0F7F9208BA08309E0A18B60
:10383000481EA08309B1012000E0002008B9002043
:10384000E6E64FF40061604801F0CBF90128EED1C3
:103850001C208DF803004FF44060ADF800000320F9
:103860008DF802006946584801F02AF901215848AC
:1038700001F097FB0021564801F093FB01215448C9
:1038800001F001FB211D524801F07FFA00BF012029
:10389000BEE62DE9F04104460D4617469846069EC1
:1038A000208BA0830AE0A18B481EA08309B10120D0
:1038B00000E0002010B90020BDE8F0814FF4003195
:1038C000606901F007FC0028EDD106B9F4E7012199
:1038D000606901F0FCFA208BA08309E0A18B481EEF
:1038E000A08309B1012000E0002008B90020E3E72F
:1038F0003949606901F0CCFB0028EFD0002239463D
:10390000606901F03AFB208BA08309E0A18B481E7F
:10391000A08309B1012000E0002008B90020CBE716
:103920002E49606901F0B4FB0028EFD0208BA08302
:1039300009E0A18B481EA08309B1012000E000200E
:1039400008B90020B8E72549891C606901F0A0FB8F
:103950000028EED04146606901F009FB208BA0836E
:1039600009E0A18B481EA08309B1012000E00020DE
:1039700008B90020A0E71949606901F089FB002817
:10398000EFD0208BA08309E0A18B481EA08309B152
:10399000012000E0002008B900208DE70F49091D33
:1039A000606901F075FB0028EED03AE02978606983
:1039B00001F0DDFA208BA08316E0A18B481EA083C6
:1039C00071B101200DE00000000C014000540040E6
:1039D000005800409C7C00080100030080000700A4
:1039E000002008B9002067E76F49606901F050FBCB
:1039F0000028E2D0208BA08309E0A18B481EA08381
:103A000009B1012000E0002008B9002054E7664910
:103A1000091D606901F03CFB0028EED06D1C701E92
:103A2000C6B2012EC2DA0121606901F05CFA012000
:103A300042E72DE9F04104460E4617469846069D9A
:103A400015B90020BDE8F081208BA08309E0A18B8F
:103A5000481EA08309B1012000E0002008B9002021
:103A6000F0E74FF40031606901F034FB0028EED13B
:103A70000121606901F02BFA208BA08309E0A18B62
:103A8000481EA08309B1012000E0002008B90020F1
:103A9000D8E74649606901F0FBFA0028EFD0002220
:103AA0003946606901F069FA208BA08309E0A18B97
:103AB000481EA08309B1012000E0002008B90020C1
:103AC000C0E73949891C606901F0E2FA0028EED0AC
:103AD0004146606901F04BFA208BA08309E0A18B7D
:103AE000481EA08309B1012000E0002008B9002091
:103AF000A8E72D49091D606901F0CAFA0028EED037
:103B00000121606901F0E3F9208BA08309E0A18B1A
:103B1000481EA08309B1012000E0002008B9002060
:103B200090E72249606901F0B3FA0028EFD0012242
:103B30003946606901F021FA208BA08309E0A18B4E
:103B4000481EA08309B1012000E0002008B9002030
:103B500078E71649491C606901F09AFA0028EED00E
:103B60000121606901F0CBF916E0012D07D1002198
:103B7000606901F0C4F90121606901F0B4F90B49F1
:103B80003F31606901F084FA30B1606901F0F1F908
:103B90003070761C681E85B2002DE6D10121606967
:103BA00001F0ADF901204DE780000700010003009E
:103BB00010B586B004462E48844232D1012144F229
:103BC000040001F035FC6015ADF8140018208DF8E4
:103BD000170003208DF8160005A9264800F070FF95
:103BE0002015ADF8140004208DF8170005A9214810
:103BF00000F066FF4FF4E13001900020ADF80800BE
:103C0000ADF80A00ADF80C00ADF810000C20ADF8CE
:103C10000E0001A9204602F0C4FB0121204602F05B
:103C20004CFC06B010BD2DE9F04107460D46144688
:103C3000DFF84480002616E0DFF83C802178384623
:103C400002F0A8FC06E05FEA0800A8F1010801D133
:103C5000BDE8F0814021384602F00AFD0128F2D18A
:103C6000641C701C86B2AE42E6DB0120F0E7000067
:103C7000003801400008014040420F0037B582B0D3
:103C800004460D4601202B46224604A900903A48DE
:103C9000FFF79AFA10B1002005B030BD0120FBE714
:103CA00010B50024C3220221E820FFF7E7FF2044DB
:103CB000C4B271220221E820FFF7E0FF2044C4B221
:103CC0000CB1002010BD0120FCE710B50024BA2281
:103CD0000221E820FFF7D2FF04460CB9012010BDF5
:103CE0000020FCE7F8B504460F4615461E46EBB229
:103CF0002246394620480096FFF743FB08B10020D2
:103D0000F8BD0120FCE738B5002400200090022314
:103D10001A466946E820FFF7E5FF04469DF80100D2
:103D20009DF8001040EA01201449088014B90846A3
:103D3000008838BD4FF6FF70FBE770B505460024DC
:103D400002231A460E49E820FFF7CCFF2044C4B2F4
:103D50000B4840780A49097840EA01202880BC22B3
:103D60000221E820FFF78AFF2044C4B20CB90020EA
:103D700070BD0120FCE7000000580040BC0000209E
:103D8000BA00002008B50121022001F05EFB0121EC
:103D90000C2001F04DFBC020ADF8000018208DF87C
:103DA000030003208DF8020069466B4800F088FE8E
:103DB00008BD08B50121042001F047FB01210820BE
:103DC00001F036FB18208DF8030003208DF8020067
:103DD0004FF48070ADF800006946604800F070FE56
:103DE00008BD08B50121084601F02FFB0121042080
:103DF00001F01EFB0220ADF8000004208DF8030046
:103E000003208DF802006946534800F059FE08BDB2
:103E100030B587B040F2DC552C4644F61F60ADF853
:103E200014004820ADF810000020ADF81600ADF8E1
:103E3000120004A94A4801F037FC6020ADF80000E8
:103E40000120ADF80200ADF806500020ADF80800E2
:103E50006946434801F065FC0821414802F0B0F88A
:103E60000120ADF80200ADF8064069463C4801F07B
:103E70009AFC08213A4802F0ACF80121384802F0D7
:103E80006FF80121364801F06BFF07B030BD10B567
:103E900088B0B7246000ADF818004820ADF81400D1
:103EA0000020ADF81A00ADF8160005A92D4801F064
:103EB000FBFB6020ADF804000120ADF80600ADF872
:103EC0000A400020ADF80C0001A9264801F0B8FC1A
:103ED0000821244802F08AF80121224802F040F823
:103EE0000121204801F03CFF08B010BD0EB50420B0
:103EF000ADF800000020ADF802000120ADF804008C
:103F00000020ADF806000F20ADF8080069464FF01C
:103F1000804001F0A7FE60214FF0804001F05AFF81
:103F20000421080702F09EF98021C80502F0A3F9D8
:103F30000121880701F014FF01220421080701F084
:103F40002AFF01220221480701F025FF0122114624
:103F5000900701F020FF0EBD00080140000C014059
:103F6000000400400008004010B500F0A5FC00F07F
:103F7000A9FC00F0AEFC00F0BAFC00F0BFFC00F0C1
:103F8000C4FC4FF48051FA4800F045FE4FF48051D4
:103F9000F84800F040FE10BD10B500F09AFC00F0AB
:103FA000A6FC4FF45041F24800F035FE4FF4C851E2
:103FB000F04800F030FE10BD10B500F07DFC00F0C0
:103FC00081FC00F08DFC00F092FC00F09EFC4FF4B0
:103FD0008041E74800F01FFE4FF48151E54800F0B2
:103FE0001AFE10BD10B500F06DFC00F072FC00F080
:103FF00077FC00F07CFC00F088FC4FF48041DC484A
:1040000000F009FE4FF48851DA4800F004FE10BDBC
:1040100010B500F05EFC00F063FC00F068FC00F0FE
:104020006DFC4FF40041D24800F0F5FD4FF4C8514B
:10403000D04800F0F0FD10BD10B500F043FC00F0DA
:1040400048FC00F04DFC00F059FC00F05EFC4FF421
:104050000051C74800F0DFFD4FF48851C54800F01B
:10406000DAFD10BD10B500F027FC00F02BFC00F0CD
:1040700030FC00F035FC00F041FC00F046FC4FF451
:104080000051BB4800F0C7FD4FF48051B94800F023
:10409000C2FD10BD10B500F01CFC00F028FC00F0C3
:1040A00034FC4FF48041B24800F0B5FD4FF4C851E4
:1040B000B04800F0B0FD10BD10B500F0FDFB00F001
:1040C00001FC00F006FC00F00BFC00F010FC00F01E
:1040D00015FC00F01AFC4FF48051A64800F09BFD3F
:1040E00010BD10B500F0EEFB00F0F3FB00F0F8FBA4
:1040F00000F0FDFB00F002FC00F007FC4FF48851DB
:104100009C4800F088FD10BD10B500F0D5FB00F014
:10411000E0FB00F0E5FB00F0EAFB00F0EFFB00F055
:10412000F4FB4FF4C051934800F075FD10BD10B57D
:1041300000F0C2FB00F0C6FB00F0CBFB00F0D0FBB0
:1041400000F0DCFB4FF42041894800F064FD4FF49F
:104150008051884800F05FFD10BD10B500F0ACFB49
:1041600000F0B0FB00F0CAFB00F0CFFB4FF4405171
:104170007F4800F050FD4FF481517E4800F04BFD28
:1041800010BD10B500F098FB00F09CFB00F0A1FB07
:1041900000F0A6FB00F0ABFB4FF44041744800F088
:1041A0003AFD4FF48051734800F035FD10BD10B555
:1041B00000F082FB00F086FB00F092FB00F09EFB1B
:1041C00000F0A3FB4FF40051694800F024FD4FF4C8
:1041D0008151684800F01FFD10BD10B500F06CFB68
:1041E00000F07EFB00F08AFB00F08FFB4FF40051E3
:1041F0005F4800F010FD4FF4C1515E4800F00BFD28
:1042000010BD10B500F06CFB4FF46041584800F051
:1042100002FD4FF4C951574800F0FDFC10BD10B528
:1042200000BF4FF40061534800F0F7FC00BF10BD21
:1042300010B500BF20214F4800F0EDFC00BF00BFCB
:104240004FF480714B4800F0E6FC00BF00BF4FF414
:104250000061484800F0DFFC00BF00BF4FF4805110
:10426000444800F0D8FC00BF00BF4FF480514048E4
:1042700000F0D1FC00BF00BF4FF400513C4800F0FB
:10428000CCFC00BF00BF4FF48041394800F0C3FCB4
:1042900000BF00BF4FF40041354800F0BCFC00BF38
:1042A00010BD08B50121042001F0C2F81C20ADF8B2
:1042B000000010208DF8030003208DF802006946ED
:1042C0002C4800F0FDFB1C212A4800F0A4FC012131
:1042D000042001F0ADF84FF4C950ADF800001420EF
:1042E0008DF8030003208DF802006946214800F094
:1042F000E7FB4FF4C9511F4800F08DFC0121082055
:1043000001F096F84FF47040ADF8000014208DF8DD
:10431000030003208DF802006946154800F0D0FB29
:104320004FF47041124800F076FC08BD10B5044609
:10433000207809283BD007DC54D2DFE800F01D20AC
:104340002326292C2F3235000E283FD008DC0A28DE
:1043500030D00B2831D00C2832D00D2842D132E099
:104360000F2836D0102837D0FF283BD137E0000087
:10437000000C014000080140FFF7F6FD33E0FFF7B5
:104380000BFE30E0FFF718FE2DE0FFF72BFE2AE0D2
:10439000FFF73EFE27E0FFF74FFE24E0FFF762FE47
:1043A00021E0FFF777FE1EE0FFF786FE1BE0FFF738
:1043B00098FE18E0FFF7A8FE15E0FFF7B8FE12E040
:1043C000FFF7CBFE0FE0FFF7DCFE0CE0FFF7EFFEA0
:1043D00009E0FFF702FF06E0FFF713FF03E0FFF736
:1043E00027FF00E000BF00BF10BDFE480078002896
:1043F0000CDBFC480078022805DAFA480078401CFB
:10440000F849087002E00020F649087070472DE96D
:10441000F04704460D46164699464FF0000AF24909
:10442000206802F035FB074602F05FFC1FFA80FAB5
:10443000206802F06EFC0746EC4AED4B02F090FC5F
:1044400029D8206802F065FC0746E84AE94B02F0EB
:1044500073FC20D8E449206802F01AFB074602F0FA
:1044600044FC1FFA80FA0A209AFBF0F100FB11A02D
:1044700089F800000A209AFBF0F00A2190FBF1F283
:1044800001FB1200307064209AFBF0F090FBF1F217
:1044900001FB12002870D849206802F091FC04D179
:1044A000FF2089F8000030702870D449206802F09D
:1044B00087FC06D1012089F80000002030700E2012
:1044C00028704FF04041206802F07AFC06D10220AB
:1044D00089F80000002030700E202870C84920683C
:1044E00002F06EFC06D1032089F800000020307035
:1044F0000E2028700021206802F062FC04D11020F8
:1045000089F8000030702870BDE8F08770B5044667
:10451000BC4920680860FCF7FAFE0546BA48006806
:1045200020B1B9480068281A02280DD3B6480560A2
:10453000AC480078022805D1B44BB54AB549B1481A
:10454000FFF765FFFFF751FFA648007820B101286B
:104550000ED0022820D115E000F08AF900F09AF977
:1045600000F0A4F9AB48FFF7E1FEFFF758FE14E0B6
:1045700000F08AF900F082F900F098F9A448FFF7FA
:10458000D5FE0AE000F08CF900F078F900F082F92D
:104590009E48FFF7CBFE00E000BF00BF70BD70B5C6
:1045A000046814F15A0F13DB0468002C10DA0A2592
:1045B000046894FBF5F605FB16441C70046894FB34
:1045C000F5F494FBF5F605FB1644147010240C70FA
:1045D0000468002C13DB04685A2C10DC0A250468DC
:1045E00094FBF5F605FB16441C70046894FBF5F487
:1045F00094FBF5F605FB16441470FF240C70046858
:10460000633403D1FF241C7014700C7070BD70B53E
:104610000446814920680860FCF779FE05467F481A
:10462000006820B17D480068281A02280DD37B4815
:1046300005606C480078022805D1744B744A7549AE
:104640007548FFF7ACFFFFF7D0FE6648007820B151
:1046500001280CD002281ED113E000F009F900F067
:1046600019F900F023F96B48FFF760FE14E000F041
:104670000BF900F003F900F019F96548FFF756FE51
:104680000AE000F00DF900F0F9F800F003F95F48D6
:10469000FFF74CFE00E000BF00BF70BD2DE9F04FFA
:1046A00087B083460C469146FCF731FE824652485D
:1046B0000690012C07DB0A2C05DCB9F1000F02DBA8
:1046C000B9F1640F02DD07B0BDE8F08F4FF47A70E6
:1046D00090FBF4F0401C52490968AAEB01018842A2
:1046E00002D24F48C0F800A04FF47A7090FBF4F764
:1046F000384602F0C3FACDE90001484602F0CFFA8D
:1047000007463A4A3A4B02F039FA0546DDE90023FA
:1047100002F034FACDE9040141490968AAEB01002D
:1047200002F0BDFACDE90201DDE9042302F004FB49
:1047300003D85846FFF7EAFE11E04FF47A7090FB79
:10474000F4F037490968AAEB0101884203D906A8A9
:10475000FFF7DCFE03E0FCF7DAFD3149086000BF3B
:10476000B1E72DE9F04F87B083460C469146FCF740
:10477000CEFD82466FF062000690012C07DB0A2C0A
:1047800005DCB9F1000F02DBB9F1640F02DD07B0FF
:10479000BDE8F08F4FF47A7090FBF4F0401C214993
:1047A0000968AAEB0101884202D21E48C0F800A0A5
:1047B0004FF47A7090FBF4F7384602F05FFACDE9D7
:1047C0000001484602F06BFA0746084A084B02F01F
:1047D000D5F90546DDE9002302F0D0F9CDE9040161
:1047E000104921E0C00000200000C8427B14AE4701
:1047F000E17A843FE1FA23400000C6C2000080BF96
:10480000000040C0C8000020C4000020C3000020F9
:10481000C2000020C1000020D0000020CC000020F9
:10482000D4000020D80000200968AAEB010002F0A3
:1048300036FACDE90201DDE9042302F07DFA03D85E
:104840005846FFF7E4FE11E04FF47A7090FBF4F065
:1048500031490968AAEB0101884203D906A8FFF78C
:10486000D6FE03E0FCF753FD2B49086000BF8EE73E
:1048700010B51021294800F0D0F910BD10B5102155
:10488000264800F0C8F910BD10B50821234800F0F3
:10489000C4F910BD10B50821204800F0BCF910BDC6
:1048A00010B504211D4800F0B8F910BD10B5042161
:1048B0001A4800F0B0F910BD10B52021174800F0DB
:1048C000ACF910BD10B54FF48071144800F0A5F993
:1048D00010BD10B54FF48051104800F09EF910BD86
:1048E00010B54FF480510E4800F097F910BD10B587
:1048F0004FF400510A4800F090F910BD10B54FF484
:104900008041074800F089F910BD10B54FF400410F
:10491000034800F082F910BDD800002000080140D3
:10492000000C014031490143314A1160704770B5B4
:10493000002100230F22C4780CB32D4C246804F40A
:10494000E064C4F5E064210AC1F10403CA4044787C
:1049500004FA03F18478144021430901254C0678B8
:10496000A155047804F01F050124AC4005786D11B1
:104970004FF0E02606EB8505C5F8004109E0047814
:1049800004F01F050124AC401B4D0678761145F854
:10499000264070BD194A0A400243154B1B1F1A607E
:1049A000704739B1124A121D12680243104B1B1D89
:1049B0001A6006E00E4A121D126882430C4B1B1D42
:1049C0001A607047042808D14FF0E021096941F0CE
:1049D00004014FF0E022116107E04FF0E021096986
:1049E00021F004014FF0E022116170470000FA0548
:1049F0000CED00E000E400E080E100E080FFFF1F3C
:104A000010B50446CA48844208D10121042000F0B0
:104A100029FD0021042000F025FD46E0C548844220
:104A200008D10121082000F01DFD0021082000F020
:104A300019FD3AE0C048844208D10121102000F05D
:104A400011FD0021102000F00DFD2EE0BB48844236
:104A500008D10121202000F005FD0021202000F0D8
:104A600001FD22E0B648844208D10121402000F037
:104A7000F9FC0021402000F0F5FC16E0B14884422A
:104A800008D10121802000F0EDFC0021802000F001
:104A9000E9FC0AE0AC48844207D10121801500F00E
:104AA000E1FC0021A01500F0DDFC10BD10B50121D6
:104AB000084600F0D7FC0021012000F0D3FC10BD17
:104AC0002DE9F041024600250026002000230024A5
:104AD000002791F803C00CF00F0591F803C01CF0FB
:104AE000100F03D091F802C04CEA050591F800C000
:104AF000BCF1000F31D0146800202BE04FF0010C06
:104B00000CFA00F3B1F800C00CEA03069E4220D173
:104B100083004FF00F0C0CFA03F7BC4305FA03FCBB
:104B20004CEA040491F803C0BCF1280F06D14FF001
:104B3000010C0CFA00FCC2F814C00AE091F803C0A2
:104B4000BCF1480F05D14FF0010C0CFA00FCC2F883
:104B500010C0401C0828D1D31460B1F800C0BCF1CB
:104B6000FF0F34DD546800202EE000F1080C4FF0F8
:104B7000010808FA0CF3B1F800C00CEA03069E42E3
:104B800021D183004FF00F0C0CFA03F7BC4305FA58
:104B900003FC4CEA040491F803C0BCF1280F05D1D2
:104BA00000F1080C08FA0CF8C2F8148091F803C060
:104BB000BCF1480F07D100F1080C4FF0010808FACA
:104BC0000CF8C2F81080401C0828CED35460BDE811
:104BD000F0814FF6FF710180022181700421C170C4
:104BE00070470246002093680B4201D0012000E08C
:104BF000002070470146886880B270470246002056
:104C0000D3680B4201D0012000E00020704701462C
:104C1000C86880B2704701617047416170470AB14E
:104C2000016100E041617047C16070474FF480321C
:104C30000A438261816182618269826970470246AA
:104C40000020424B18684FF68073184040EA02106B
:104C500008433E4B186070473D49C8617047F0B546
:104C60000A46002300240021002500F00046B6F18A
:104C7000004F02D1354EF16901E0344E7168C0F346
:104C8000034583B200F44016B6F5401F08D121F069
:104C900070612E4E766826F070662C4F7E6012E0B2
:104CA00000F48016B6F5801F06D1032606FA05F437
:104CB000A14341F0706106E0460D360103FA06F6A5
:104CC000B14341F0706122B1460D360103FA06F698
:104CD000314300F00046B6F1004F02D11B4EF161A6
:104CE00001E01A4E7160F0BD30B500228B071C0F39
:104CF0000F2303FA04F2154B08338C1053F82430B9
:104D00009343124C08348D1044F8253023468C1000
:104D100053F824308C07240F00FA04F423430B4C7F
:104D200008348D1044F8253030BD0A4908607047BA
:104D300000080140000C0140001001400014014037
:104D400000180140001C014000200140000001400B
:104D500000002042DC00204210B50446F74884429F
:104D600009D10121480500F08AFB00214FF4001011
:104D700000F085FB08E00121880500F080FB0021A0
:104D80004FF4800000F07BFB10BD2DE9F04385B0AF
:104D900004460D460026B1460427DFF8A483A68802
:104DA0004FF6C0700640684600F0D5FADDF808807E
:104DB000E448B8FBF0F01FFA80F946EA0906A6803D
:104DC00020884FF6FE71084020800026DE492868C2
:104DD00088420CD828684000B8FBF0F087B2042F56
:104DE00000DA04273E4309F10100208427E0E88827
:104DF000A0F53F41FF3906D1286800EB4000B8FB21
:104E0000F0F087B209E0286800EBC00101EB001068
:104E1000B8FBF0F087B247F480473805000D01D1A8
:104E200047F0010747F4004006434FF4967009FB32
:104E300000F04FF47A7190FBF1F0401C2084A683BF
:104E4000208840F00100208026884FF6F53006408B
:104E5000A8886989084306432680A88929890843C8
:104E6000208105B0BDE8F08341F288310160002166
:104E700081804BF6FF71C1800021018141814FF497
:104E800080418181704721B1028842F00102028095
:104E900004E002884FF6FE731A400280704721B189
:104EA000828842F40062828004E082884FF2FF73BD
:104EB0001A408280704721B1828842F480528280F9
:104EC00004E082884EF6FF731A408280704721B159
:104ED000028842F48072028004E002884FF6FF6389
:104EE0001A400280704721B1028842F400720280A9
:104EF00004E002884FF6FF531A400280704721B148
:104F0000028842F48062028004E002884FF6FF3398
:104F10001A40028070470A46002181894FF60173CA
:104F2000194002F0FE0319438181704721B1828943
:104F300042F00102828104E082894FF6FE731A403A
:104F40008281704721B1028842F04002028004E071
:104F500002884FF6BF731A40028070471AB18388E7
:104F60000B43838002E083888B43838070470182F8
:104F700070470146088AC0B2704712B141F0010182
:104F800002E04FF6FE7319400182704708B50246F1
:104F9000002000900092009808440090009800883B
:104FA00008BD21B1028842F40042028003E0028879
:104FB000C2F30E0202807047B1F5006F04D102887F
:104FC00042F40062028004E002884FF2FF731A404C
:104FD00002807047B1F5005F04D1028842F40052AC
:104FE000028004E002884DF6FF731A400280704789
:104FF00021B1028842F48052028004E002884EF619
:10500000FF731A4002807047B1F5006F04D1028827
:1050100042F40062028004E002884FF2FF731A40FB
:105020000280704721B1028842F02002028004E031
:1050300002884FF6DF731A40028070470146088BE2
:105040000012704721B1028842F01002028004E091
:1050500002884FF6EF731A400280704721B9028828
:1050600042F08002028004E002884FF67F731A400B
:1050700002807047B1F5804F05D0828B4BF6FF73ED
:105080001A40828303E0828B42F48042828370471D
:1050900070B502460024002500230020958A138B5A
:1050A0001B0445EA030626F07F4404EA01068E420B
:1050B00001D1012000E0002070BD10B501460020A4
:1050C000002300228B8A0A8B120443EA020424F094
:1050D0007F4010BD0CB502460020002301930093D1
:1050E00000920B0F019321F07F41019B1BB1009BAC
:1050F0001433009303E0090C009B18330093009BCA
:105100001B680B4201D0012000E000200CBD0022F2
:1051100021F07F42D3438382704730B5024600209E
:105120000023948801F0E06504EA154321F07F41F3
:10513000948A0C420AD04BB1012008E00054004090
:1051400000127A0040420F00A0860100002030BD0E
:10515000002221F07F42D34383827047DD480068FC
:1051600040F00100DB49086008464068DA49084021
:10517000D849486008460068D8490840D5490860C1
:105180000846006820F4802008600846406820F443
:10519000FE0048604FF41F0088607047CD490968E1
:1051A00021F48031CB4A11601146096821F4802135
:1051B0001160B0F5803F03D0B0F5802F0ED106E02E
:1051C000C449096841F48031C24A116007E0C1490D
:1051D000096841F4A021BF4A116000E000BF00BF90
:1051E000704710B501460022002300204A11012A11
:1051F00002D1B84C236806E0022A02D1B54C236ADA
:1052000001E0B44C636A01F01F02012494401C4287
:1052100001D0012000E0002010BD38B50020009032
:105220000024002500BF3120FFF7DBFF0546009872
:10523000401C00900098B0F5A06F01D0002DF2D076
:105240003120FFF7CEFF08B1012400E00024204602
:1052500038BD014600209F4A106820F0F80040EA5F
:10526000C100106070479E490860704702460020E8
:10527000984B586820F47C1042EA01031843954B80
:105280005860704796490866704701460020914A69
:10529000506820F003000843506070478D48406814
:1052A00000F00C007047014600208A4A506820F048
:1052B000F00008435060704701460020854A50685E
:1052C00020F4E06008435060704701460020814AA6
:1052D000506820F4605040EAC1005060704729B126
:1052E0007C4A527A02437B4B5A7204E0794A527AE2
:1052F0008243784B5A7270477A490860704701467A
:105300000020744A506820F44040084350607047C1
:105310000021754A11706F4A82F82010012802D0CE
:10532000042808D103E001216F4A117004E005212F
:105330006D4A117000E000BF00BF70476B49086004
:1053400070476449096A0143624A116270476749BC
:1053500044390860704730B5002100220024002342
:105360005C4D6D6805F00C0121B1042905D00829B8
:1053700023D105E05E4D056022E05D4D05601FE034
:10538000544D6D6805F47012524D6D6805F480340B
:10539000022505EB92421CB9564D554305600BE0C2
:1053A0004C4D6D6815F4003F03D0524D55430560D8
:1053B00002E04F4D5543056002E04D4D056000BFD2
:1053C00000BF444D6D6805F0F00109094A4D6B5C62
:1053D0000568DD4045603F4D6D6805F4E061090AF0
:1053E000454D6B5C4568DD4085603A4D6D6805F460
:1053F0006051C90A404D6B5C4568DD40C560354D64
:105400006D6805F44041890B3C4D6B5CC568B5FB8C
:10541000F3F5056130BD29B12E4A526902432D4B87
:105420005A6104E02B4A526982432A4B5A61704701
:1054300029B1284A92690243264B9A6104E0254A21
:1054400092698243234B9A61704729B1214AD269FC
:105450000243204BDA6104E01E4AD26982431D4BAD
:10546000DA61704729B11B4AD2680243194BDA60EE
:1054700004E0184AD2688243164BDA60704729B1BB
:10548000144A12690243134B1A6104E0114A12696B
:105490008243104B1A6170471449403908607047C5
:1054A0000F49C86470470B49C87170470948406A82
:1054B00040F0807007494862704701460020054A65
:1054C00092680A4201D0012000E0002070470149A3
:1054D00088727047001002400000FFF8FFFFF6FEE0
:1054E00000004242D8004242201002408004424262
:1054F00000127A0000093D00DC000020EC000020D2
:1055000010B50446FE48844208D10121C014FFF7BB
:10551000A9FF0021E014FFF7A5FFC4E0B4F1804F1C
:1055200008D101210846FFF7AAFF00210120FFF75B
:10553000A6FFB8E0F348844208D101210220FFF71A
:105540009EFF00210220FFF79AFFACE0EE48844264
:1055500008D101210420FFF792FF00210420FFF76A
:105560008EFFA0E0E948844208D101210820FFF71E
:1055700086FF00210820FFF782FF94E0E448844280
:1055800008D101211020FFF77AFF00211020FFF73A
:1055900076FF88E0DF48844208D101212020FFF710
:1055A0006EFF00212020FFF76AFF7CE0DA4884428A
:1055B00008D101214014FFF755FF00216014FFF7C7
:1055C00051FF70E0D548844209D10121C804FFF79A
:1055D00049FF00214FF40020FFF744FF63E0D0486B
:1055E000844209D101210805FFF73CFF00214FF457
:1055F0008010FFF737FF56E0CA48844209D10121E5
:105600004805FFF72FFF00214FF40010FFF72AFF96
:1056100049E0C548844208D101214020FFF72FFF0F
:1056200000214020FFF72BFF3DE0C048844208D115
:1056300001218020FFF723FF00218020FFF71FFFBB
:1056400031E0BB48844208D101218015FFF717FFE4
:105650000021A015FFF713FF25E0B648844209D1C9
:1056600001210804FFF7FEFE00214FF48030FFF710
:10567000F9FE18E0B048844209D101214804FFF73F
:10568000F1FE00214FF40030FFF7ECFE0BE0AB48D9
:10569000844208D101218804FFF7E4FE00214FF481
:1056A0008020FFF7DFFE10BD00220288944B984255
:1056B0000ED0994B98420BD0B0F1804F08D0914B4F
:1056C000984205D0904B984202D0904B984204D11A
:1056D0004FF68F731A404B881A438D4B984207D070
:1056E0008C4B984204D04FF6FF431A40CB881A43A4
:1056F00002808B8883850B880385814B98420BD071
:10570000854B984208D08B4B984205D08A4B9842E3
:1057100002D08A4B984201D10B7A038601238382FF
:10572000704770B5002400220023058C4FF6FE76EA
:1057300035400584028C8388048B4FF68F752C408E
:10574000B51E2C400D882C43751E2A400D892A4316
:105750004D882A436A4DA8420BD06F4DA84208D00D
:10576000744DA84205D0744DA84202D0734DA84292
:1057700013D14FF6F7752A404D892A434FF6FB7532
:105780002A408D882A434FF6FF652B404FF6FF5580
:105790002B408D892B43CD892B4383800483CD8877
:1057A0008586028470BD70B5002400220023058C1C
:1057B0004FF6EF7635400584028C8388048B48F6DB
:1057C000FF752C404FF6FF452C400D884FF6FF76B5
:1057D00006EA05252C434FF6DF752A400D8906EAB7
:1057E00005152A434D8806EA05152A43444DA8426B
:1057F00002D0494DA8421DD14FF67F752A404D89F0
:105800004FF6FF7606EA05152A434FF6BF752A4084
:105810008D8806EA05152A434FF6FF352B404FF2D7
:10582000FF752B408D8906EA85052B43CD8906EA55
:1058300085052B4383800483CD880587028470BD52
:1058400070B5002400220023058C4FF6FF6635401A
:105850000584028C8388848B4FF68F752C404FF61D
:10586000FC752C400D882C434FF6FF552A400D89BE
:105870004FF6FF7606EA05252A434D8806EA0525F8
:105880002A431F4DA84202D0234DA8421DD14FF2FA
:10589000FF752A404D894FF6FF7606EA05252A4313
:1058A0004FF6FF352A408D8806EA05252A434EF635
:1058B000FF752B404DF6FF752B408D8906EA0515C7
:1058C0002B43CD8906EA05152B4383808483CD883D
:1058D0008587028470BD70B5002200230024058CEA
:1058E0004EF6FF7635400584038C8488828B48F61B
:1058F000FF752A404FF6FF452A400D8820E0000042
:10590000002C01400004004000080040000C004052
:10591000001000400014004000340140004C0140E1
:10592000005001400054014000180040001C00409D
:105930000020004000400140004401400048014078
:105940004FF6FF7606EA05252A434DF6FF752B40F4
:105950000D8906EA05352B434D8806EA05352B43AC
:10596000FA4DA84202D0FA4DA84208D14BF6FF7575
:105970002C408D894FF6FF7606EA85152C438480EE
:105980008283CD88A0F84050038470BD828B4FF293
:10599000FF331A408283828B4FF6FF7303EA0123A1
:1059A0001A4382837047F0B50C4615460022002149
:1059B0000026078C4EF6FF7C07EA0C070784828BD3
:1059C000018C4FF6FF7707EA043640F6FF473A406E
:1059D0004FF6FF7707EA05273A434FF6FF7707EAC6
:1059E00003373A43D94FB8420ED0D94FB8420BD003
:1059F000B0F1804F08D0D74FB84205D0D64FB8424B
:105A000002D0D64FB84206D14DF6FF77394046F462
:105A10008057394305E047F6FF57394044F4805733
:105A2000394382830184F0BD828B4FF6F3731A40B1
:105A30008283828B0A4382837047F0B50C461546F9
:105A4000002200210026078C4FF6FF6C07EA0C07A6
:105A50000784828B018C4FF6FF7707EA04264FF606
:105A60000C773A404FF6FF7707EA03172F433A4384
:105A7000B64FB8420ED0B64FB8420BD0B0F1804FFF
:105A800008D0B44FB84205D0B34FB84202D0B34F9C
:105A9000B84206D14FF6FF57394046F48077394374
:105AA00005E04FF2FF57394044F480773943828351
:105AB0000184F0BD028B4FF2FF331A400283028B48
:105AC0004FF6FF7303EA01231A4302837047F0B5D0
:105AD0000C461546002200210026078C4FF6EF7C6D
